:03020000020206F1
:08025F00E4F52EF52F02020365
:030203000217548B
:0400000002020032C6
:01000B0032C2
:0100130032BA
:01001B0032B2
:0100230032AA
:01002B0032A2
:01003300329A
:01003B003292
:01004300328A
:01004B003282
:01005300327A
:01005B003272
:01006300326A
:0101000032CC
:0101040032C8
:0101080032C4
:01010C0032C0
:0101100032BC
:0101140032B8
:0101180032B4
:0101200032AC
:0101240032A8
:0101280032A4
:01012C0032A0
:01013000329C
:010134003298
:010138003294
:01013C003290
:01014000328C
:010148003284
:01014C003280
:01015000327C
:010154003278
:010158003274
:01015C003270
:01016000326C
:01017000325C
:010174003258
:010178003254
:01017C003250
:01018000324C
:010184003248
:010188003244
:01018C003240
:01019000323C
:010194003238
:010198003234
:01019C003230
:0101A000322C
:0101A8003224
:0101AC003220
:0101B000321C
:0101B4003218
:0101B8003214
:2002670022AE82AF837C007D00C3EC9EED9F501B7AB07B04EA24FFF8EB34FFF988028903DB
:20028700E84970F00CBC00E10D80DE22AE82AF837C007D00C3EC9EED9F501B7A0A7B00EA08
:2002A70024FFF8EB34FFF988028903E84970F00CBC00E10D80DE2275AF0790E67BE090E6B6
:2002C7007CF0DAF322227F00BFFF00500B90E678E0FE20E0030F80F090E678E0FF20E204E1
:2002E700EF20E10D90E678E0FF74404FF075820122758200227F00BFFF00500B90E678E0A1
:20030700FE20E0030F80F090E678E0FF30E20D90E678E0FF74404FF0758201227582002277
:200327007F0090E678E0FE20E204758200220FBFFF0040EE758201227F0090E678E0FE20CC
:20034700E604758200220FBFFF0040EE75820122AF82C3E49522E433FE90E678E0FD74801B
:200367004DF0C007C006120327D006D00790E679EFF0C007C0061202CDE582D006D0077003
:2003870014E523600C90E678E0FD74404DF012033F75820022EE601090000AC007C006120E
:2003A7000293D006D00780B1E523600990E678E0FF74404FF075820122AE82AF837D00E5B4
:2003C700267003F582227522647523007582A2C007C006C005120357E582D005D006D00711
:2003E70060030204CFAC2590E679ECF0C007C006C0051202CDE582D005D006D007600302A1
:2004070004CF90E679E524F0C007C006C0051202CDE582D005D006D00760030204CF90E650
:2004270078E0FC74404CF0C007C006C00512033F90E678E0FC74804CF012032790E6797432
:20044700A3F01202CDE582D005D006D007707990E679E08E828F83F0C007C006C005120208
:20046700FCE582D005D006D007705DFCC3EC9526502A90E679E08E828F83F0A3AE82AF83FD
:20048700C007C006C005C0041202FCE582D004D005D006D00770310C8C0580D090E678E016
:2004A700FF74204FF090E679E0C0051202FCE582D005701490E678E0FF74404FF090E67950
:2004C700E0C00512033FD0058D8222AE82AF837D00E5297003F58222752264752300758293
:2004E700A2C007C006C005120357E582D005D006D0076003020594AC2890E679ECF0C00748
:20050700C006C0051202CDE582D005D006D007600302059490E679E527F0C007C006C00544
:200527001202CDE582D005D006D0077060FCC3EC952950498E828F83E090E679F08E828F98
:2005470083E0FBA3AE82AF83903A04E02BF0903A02E0FAA3E0FB903A0274012AF0E43BA327
:20056700F0C007C006C005C0041202CDE582D004D005D006D00770150C8C0580B190E6788F
:20058700E0FF74404FF0C00512033FD0058D8222903A0EE0FF903A00E0F524A3E0F5258FBD
:2005A7002690E740C0071203C0AE82D0077D00903A00E0FBA3E0FC903A00EF2BF0ED3CA373
:2005C700F08E8222AF82903A00E0F527A3E0F5288F2990E740C0071204D2D0077E00903A1E
:2005E70000E0FCA3E0FD903A00EF2CF0EE3DA3F022AF8290E6017480F00000000090E67071
:20060700E4F090E671F075B2FA74804FF58090000AC007120268D007AEB474F75EF5B47453
:20062700024FF5807E007F002080208E028F037C007D00C3EA94FFEB94FFEC9400ED648006
:20064700948050070EBE00E00F80DD3080047FC880027F64903A0AEFF0903A06E4F0A3F0C6
:20066700A3F0A3F0903A05F0227582200205F87582600205F802067075B43F43B201C280E8
:2006870090E60174E3F00000000090E60BE4F0000000000000000090E6997480F00000004D
:2006A7000090E6997480F090E604F00000000090E61AE4F00000000090E6047406F000008E
:2006C700000090E61A740DF00000000090E604E4F000000000223080047F1480027F0A90C0
:2006E7003A0AE0FE2FF07F00D283C2830FBF400040F6D287D283C283D283C283D283C2832E
:20070700D283C28353B2053080047F0280027F01903A0AE0FE2FF0308105D28112067FD2B4
:200727008143B2022285B52A75B5FF903A0EE0FE903A06E0FAA3E0FBA3E0FCA3E0FD8E0020
:2007470079007E007F00903A06E82AF0E93BA3F0EE3CA3F0EF3DA3F090E68BE06022FA7545
:200767009B40759AE775AF07903A05E0F990E67BE0F5B0D28329F9C283DAF5903A05E9F025
:11078700852AB590E68BE0FFBF400050030206DD22C4
:20006C0028015A5445580A0C00000001030000000000000000000000000000000000303086
:08008C003030303030303030EC
:200798002290E683E4F07420F003F07430F07401F07421F07411F07431F07412F07432F047
:2007B8007404F07424F07416F07436F022AF82E50924E0500375091F90E6BFE0701090E6DD
:2007D800BEE0FEC39509500690E6BEE0F50975AF078F9B85089A7E407FE7EE04F59E7E40B9
:2007F8007FE70EBE00010F8F9D90E67C7403F090E67BE0FF7E00BF00028015C3EE950950D7
:200818000F90E67CEFF0E4F090E67BE0FF0E80E60EEE2EFE90E740F090E7417403F090E664
:200838008AE4F090E68BEEF022903A0CE0FEA3E0FFC374409EE49F50067C407D0080048ED2
:20085800048F05903A0EECF07D00903A0CEEC39CF0EF9DA3F022903A0FE0FFBF3102802B0E
:20087800BF320122BF3927903A04E4F0903A02F0A3F090E6BBE0FE7F0090E6BAE0FD7C0025
:20089800903A00ED4FF0EC4EA3F02202067C90E6A0E0FF74014FF022C021C0E0C0F0C08299
:2008B800C083C007C006C005C004C003C002C001C000C0D075D00090E6B9E0FF903A0FF015
:2008D80090E6B57401F090E6B9E0FF24F35003020C81EFF5F0240B83F582E5F0241183F5EA
:2008F80083E47315C981498181E41618282D3D4209090C0A0C0C0A0C0C0C0C0C0C90E6B8B6
:20091800E0FFBF8002800DBF8102801EBF8202802F020C8190E740E4F090E741F090E68A7E
:20093800F090E68B7402F0020C8190E740E4F090E741F090E68AF090E68B7402F0020C81A0
:2009580090E6BCE0FF600FBF01028019BF80028005BF812F801E90E6A0E0FF53070190E70A
:2009780040EFF0803A90E6A1E0FF53070190E740EFF0802B90E6A2E0FF53070190E740EFFC
:20099800F0801C90E6BCE0C31314540324A3F582E434E6F583E0FF53070190E740EFF0904C
:2009B800E741E4F090E68AF090E68B7402F0020C8190E6B8E0FFBF02028003020C8190E6E5
:2009D800BAE06003020C8190E6BCE0FF600FBF01028016BF80028005BF8126801890E6A0C1
:2009F800E0FF74FE5FF0020C8190E6A1E0FF74FE5FF0020C8190E6A2E0FF74FE5FF0020CA4
:200A18008190E6BCE0C31314540324A3FEE434E6FF90E6BCE0C31314540324A3F582E4347F
:200A3800E6F583E0FD5305FE8E828F83EDF0020C8190E6B8E0FFBF02028003020C8190E627
:200A5800BAE06003020C8190E6BCE0FF600FBF01028015BF80028005BF8123801690E6A046
:200A7800E0FF74014FF0804390E6A1E0FF74014FF0803890E6A2E0FF74014FF0802D90E6D8
:200A9800BCE0C31314540324A3FEE434E6FF90E6BCE0C31314540324A3F582E434E6F58398
:200AB800E0FD4305FE8E828F83EDF090E6BCE05480C423541FFF90E6BCE0FE740F5E420783
:200AD80090E683EFF074204FF0020C8190E6BBE0FFBF01028019BF02028028BF0302805357
:200AF800BF0603020BC8BF0703020BDC020C0B7EFE7F178F0690E6B3EEF090E6B474FEF03C
:200B1800020C8190E680E0FF30E7147E1A7F188F0690E6B3EEF090E6B4741AF0020C817EAE
:200B3800507F188F0690E6B3EEF090E6B47450F0020C8190E6BAE0FFBF0102800FBF02028A
:200B5800801EBF0302802DBF0452803C7582D07ED07F178F068E087509051207C5020C81D7
:200B78007582D57ED57F178F068E087509211207C5020C8175828A7E8A7F008F068E0875C9
:200B9800090A1207C5020C817582F67EF67F178F068E087509081207C5020C817E867F180D
:200BB8008F0690E6B3EEF090E6B47486F0020C817E107F188F0690E6B3EEF090E6B474106F
:200BD800F0020C8190E680E0FF30E7147E507F188F0690E6B3EEF090E6B47450F0020C8110
:200BF8007E1A7F188F0690E6B3EEF090E6B4741AF0807690E6A0E0FF74014FF0806B8069F7
:200C180090E740E4F090E68AF090E68B04F08059120799805490E740E4F090E68AF090E6FC
:200C38008B04F08044120799803F90E6B8E0FFBF823790E6BCE0C31314540375F002A424E1
:200C580011F582743A35F0F583E4F0A3F090E685E090E740F090E684E0FF90E741F090E6C9
:200C78008AE4F090E68B7402F090E6B8E0FFBF4003020DADBFC0028003020DDB90E6BFE0C9
:200C9800FE7F0090E6BEE0FD7C00903A0CED4FF0EC4EA3F012084190E6B9E0FFBF22028097
:200CB80013BF3003020D51BF38028025BF3A028049020DA290E6B5E4F090E68AF090E68BB4
:200CD8007428F090E6B3E4F090E6B4746CF0020DDB90E6BBE0FE7F0090E6BAE0FD7C0090E8
:200CF8003A00ED4FF0EC4EA3F090E68AE4F0120597E58290E68BF0020DDB903A02E0FEA398
:200D1800E090E740EEF0903A02E0A3E090E741F0903A04E090E742F07522007523017582F1
:200D3800A2120357AF8290E743EFF090E68AE4F090E68B7404F0020DDB759B057E057F3A4B
:200D58008F068E9A759E417E417FE78F068E9DC0027A071202BED002AFB274FD5FF5B23096
:200D7800810C90E740E4F0D28143B202800990E7407401F012067090E7487401F090E68AA8
:200D9800E4F090E68B7409F0803990E6A0E0FF74014FF0802E90E6BFE0700690E6BEE060EA
:200DB8001A903A107401F090E68BE4F0AF9174EF5FF59190E65D7401F0801E12086E90E691
:200DD8008BE4F0AF9174EF5FF59190E65D7401F090E6A0E0FF74804FF0D0D0D000D001D0A3
:200DF80002D003D004D005D006D007D083D082D0F0D0E0D02132C0E0C082C083C007C0D0FC
:200E180075D000AF9174EF5FF59190E65D7402F0D0D0D007D083D082D0E032C0E0C082C014
:200E380083C007C0D075D000AF9174EF5FF59190E65D7404F0D0D0D007D083D082D0E032BA
:200E5800C0E0C082C083C007C0D075D000AF9174EF5FF59190E65D7408F0D0D0D007D08328
:200E7800D082D0E032C0E0C082C083C007C0D075D000AF9174EF5FF59190E65D7410F0D0C6
:200E9800D0D007D083D082D0E032C0E0C082C083C007C0D075D000AF9174EF5FF59190E64D
:200EB8005D7420F0D0D0D007D083D082D0E032C0E0C082C083C007C0D075D000AF9174EFD7
:200ED8005FF59190E65D7440F0D0D0D007D083D082D0E032C021C0E0C0F0C082C083C00723
:200EF800C006C005C004C003C002C001C000C0D075D000C2E8120841903A0FE0FFBF300202
:200F18008023BF38028005BF3A12801990E68AE4F0120597E58290E68BF0800990E68AE4AD
:200F3800F090E68BF0AF9174EF5FF59190E65F7401F0D2E8D0D0D000D001D002D003D00482
:200F5800D005D006D007D083D082D0F0D0E0D02132C021C0E0C0F0C082C083C007C006C0BC
:200F780005C004C003C002C001C000C0D075D000C2E8903A10E06020903A10E4F090E6BFEE
:200F9800E0FE7F0090E6BEE0FD7C00903A0CED4FF0EC4EA3F012086E120841903A0FE0FFE5
:200FB800BF31028016BF3202800EBF390E90E68BE0F5821205CB800312072C90E68BE4F033
:200FD800AF9174EF5FF59190E65F7402F0903A0CE0F5F0A3E045F0700990E6A0E0FF748081
:200FF8004FF0D2E8D0D0D000D001D002D003D004D005D006D007D083D082D0F0D0E0D0219E
:2010180032C0E0C082C083C007C0D075D000AF9174EF5FF59190E65F7404F0D0D0D007D0B9
:2010380083D082D0E032C0E0C082C083C007C0D075D000AF9174EF5FF59190E65F7408F057
:20105800D0D0D007D083D082D0E032C0E0C082C083C007C0D075D000AF9174EF5FF59190A1
:20107800E65F7410F0D0D0D007D083D082D0E032C0E0C082C083C007C0D075D000AF91742C
:20109800EF5FF59190E65F7420F0D0D0D007D083D082D0E032C0E0C082C083C007C0D0751C
:2010B800D000AF9174EF5FF59190E65F7440F0D0D0D007D083D082D0E032C0E0C082C08324
:2010D800C007C0D075D000AF9174EF5FF59190E65F7480F0D0D0D007D083D082D0E032908D
:2010F800E680E0FF74084FF090E6007412F0900002120268AF8E74F85FF58ED28143B20209
:20111800C2AFC2E89000437402F090004414F090004574B8F090E668E0FF74084FF0900191
:20113800007402F07EB07F088F05900101EDF0900102EEF09001047402F07E0E7F0E8F0560
:20115800900105EDF0900106EEF09001087402F07E337F0E8F05900109EDF090010AEEF0CE
:2011780090010C7402F07E587F0E8F0590010DEDF090010EEEF09001107402F07E7D7F0ED6
:201198008F05900111EDF0900112EEF09001147402F07EA27F0E8F05900115EDF09001162D
:2011B800EEF09001187402F07EC77F0E8F05900119EDF090011AEEF09001207402F07EEC33
:2011D8007F0E8F05900121EDF0900122EEF09001247402F07E697F0F8F05900125EDF0906F
:2011F8000126EEF09001287402F07E197F108F05900129EDF090012AEEF090012C7402F0A6
:201218007E3E7F108F0590012DEDF090012EEEF09001307402F07E637F108F05900131EDC5
:20123800F0900132EEF09001347402F07E887F108F05900135EDF0900136EEF0900138742C
:2012580002F07EAD7F108F05900139EDF090013AEEF090013C7402F07ED27F108F059001AF
:201278003DEDF090013EEEF0AF9174EF5FF59190E65D747FF090E65CE0FF747F4FF090E6F8
:201298005F74FFF090E65EF0D2E8D2AF90E61174A0F00000000090E61074A0F00000000060
:2012B80090E61274E2F00000000090E61374A2F00000000090E61474EAF00000000090E66B
:2012D80015E4F00000000090E680E0FF74824FF090000A12026890E680E0FF74F75FF0223C
:2012F80090E6A3E0FF74FE5FF00000000090E6A4E0FF74FE5FF00000000090E6957480F074
:201318000000000090E6957480F090E604F00000000090E6047402F00000000090E604E41E
:20133800F0000000002290E6A3E05408FF70047F0180027F007E008F828E832285820A85E2
:20135800830B85F00C7B007C00C3EB9508EC9509502B74FE2C40268B0174F02CFAEB250AEB
:20137800F8EC350BFEAF0C88828E838FF01217B0F889828A83F00BBB00CF0C80CC90E69012
:20139800E509F000000000AE0890E691EEF08B828C832285822B75080175090090002B7520
:2013B800F04002135490E6A4E05404FF70047F0180027F007E008F828E832290E694E0FE8C
:2013D8007F0090E695E07C004FF582EC4EF5832285820A85830B85F00C90E694E0FB7C006F
:2013F80090E695E0F97A00E94CF50DEA4BF50E79007A00C3E9950DEA950E5031C3E9950870
:20141800EA9509502874FE2A4023E9250AF8EA350BFBAC0C898274F42AF583E0FF88828B3F
:20143800838CF012179509B900C90A80C60000000090E6957480F089828A8322752C0075BD
:20145800080175090090002C75F0401213E8852C822275B407000000000000000022AF82A7
:201478007E00EF33920092A1EF2FFFC2A000000000D2A000000000C2A0000000000EBE08C8
:201498000040DF227F007E00C2A200000000D2A200000000C2A200000000EF2FFDA2A3E476
:2014B80033FC4DFF0EBE080040DE8F8222E5822582FF74014FF582121476852D82021476D0
:2014D800E58225E0F58212147602149C90E6047480F00000000090E61AE4F0000000009071
:2014F800E6047486F00000000090E604E4F00000000090E61474EAF00000000090E61A74D6
:201518000DF00000000090E6047406F00000000090E604E4F00000000090E618E0FF74FEA5
:201538005FF00000000090E619E0FF74FE5FF00000000090E61BE0FF74FE5FF000000000E4
:2015580090E6247404F00000000090E625E4F00000000090E60974FFF00000000000000020
:201578000090E63474C1F00000000090E63574FFF000000000752E01752F0022AD82AE83AC
:20159800AFF0E53045317003021742C3E5329402E533940050030217428D828E838FF012C0
:2015B80017B0FCBC0102800FBC0203021649BC03030216C00217157402B53006E4B53102EB
:2015D800800280538D828E838FF0E4121795042DF9E43EFA8F0389828A838BF01217B0F524
:2015F80082C007C006C005C003C002C0011214D8A882D001D002D003D005D006D00789828E
:201618008A838BF0E81217957508027509008D828E838FF00213548D828E838FF074E11279
:2016380017957508017509008D828E838FF00213547403B53006E4B53102800280507401ED
:201658002DF9E43EFA8F0389828A838BF01217B0F974022DF8E43EFA8F0388828A838BF05E
:201678001217B0F52D8982C007C006C0051214C5D005D006D0078D828E838FF0E41217954C
:20169800750801F5098D828E838FF00213548D828E838FF074E11217957508017509008D73
:2016B800828E838FF00213547401B53006E4B531028002802ED28090000AC007C006C005FD
:2016D800120293D005D006D007C2808D828E838FF0E4121795750801F5098D828E838FF02B
:2016F8000213548D828E838FF074E11217957508017509008D828E838FF002135474012D11
:20171800F9E43EFA8F0389828A838BF0EC1217958D828E838FF074E212179575080275091D
:20173800008D828E838FF00213547534E175080175090090003475F0400213541210F71206
:2017580012F81214E41213BDE5828583F045F060F475080875090090003575F0401213E819
:1D177800AE82AF83000000008E308F3175320875330090003575F04012159480C8B0
:2017D0005A544558004661756C74496E6A656374696F6E46504741000000000000000000F1
:2017F00000000000002D64656661756C740012010002FFFFFF401A22000100000102030131
:201810000A060002FFFFFF40010009023500010104C0320904000005FFFFFF000705810292
:20183000000200070501020002000705820200020007050402000200070586020004000047
:2018500009023500010104C0320904000005FFFFFF00070581024000000705010240000013
:201870000705820240000007050402400000070586024000000004030409000000FF00004F
:071890000000000000000051
:06023500E478FFF6D8FD9D
:20021300790DE94400601B7A0190188A780C75923AE493F2A308B800020592D9F4DAF275B8
:0202330092FF38
:1B17950020F71130F6138883A88220F509F6A8837583002280FEF280F5F02253
:20023B007800E84400600A790075923AE4F309D8FC780CE84400600C7901903A00E4F0A350
:04025B00D8FCD9FAF8
:0D02060075813C1217CCE5826003020203F3
:1C17B00020F71430F6148883A88220F507E6A88375830022E280F7E49322E02248
:0417CC007582002200
:00000001FF
