:03020000020206F1
:08025F00E4F52EF52F02020365
:0302030002174C93
:0400000002020032C6
:01000B0032C2
:0100130032BA
:01001B0032B2
:0100230032AA
:01002B0032A2
:01003300329A
:01003B003292
:01004300328A
:01004B003282
:01005300327A
:01005B003272
:01006300326A
:0101000032CC
:0101040032C8
:0101080032C4
:01010C0032C0
:0101100032BC
:0101140032B8
:0101180032B4
:0101200032AC
:0101240032A8
:0101280032A4
:01012C0032A0
:01013000329C
:010134003298
:010138003294
:01013C003290
:01014000328C
:010148003284
:01014C003280
:01015000327C
:010154003278
:010158003274
:01015C003270
:01016000326C
:01017000325C
:010174003258
:010178003254
:01017C003250
:01018000324C
:010184003248
:010188003244
:01018C003240
:01019000323C
:010194003238
:010198003234
:01019C003230
:0101A000322C
:0101A8003224
:0101AC003220
:0101B000321C
:0101B4003218
:0101B8003214
:2002670022AE82AF837C007D00C3EC9EED9F50147AB07B041ABAFF011BEA4B70F70CBC00C1
:20028700E80D80E522AE82AF837C007D00C3EC9EED9F50147A0A7B001ABAFF011BEA4B70B0
:2002A700F70CBC00E80D80E52275AF0790E67BE090E67CF0DAF322227F00BFFF00500B90E5
:2002C700E678E0FE20E0030F80F090E678E0FF20E204EF20E10B90E678E04440F075820151
:2002E70022758200227F00BFFF00500B90E678E0FE20E0030F80F090E678E0FF30E20B905C
:20030700E678E04440F075820122758200227F0090E678E0FE20E204758200220FBFFF00BA
:2003270040EE758201227F0090E678E0FE20E604758200220FBFFF0040EE75820122AF82BA
:20034700C3E49522E433FE90E678E04480F0C007C006120315D006D00790E679EFF0C007A8
:20036700C0061202BFE582D006D0077012E523600A90E678E04440F012032D75820022EE4A
:20038700601090000AC007C00612028CD006D00780B5E523600890E678E0FF4440F0758295
:2003A7000122AE82AF837D00E5267003F582227522647523007582A2C007C006C00512038A
:2003C70045E582D005D006D00760030204B0AC2590E679ECF0C007C006C0051202BFE582A7
:2003E700D005D006D00760030204B090E679E524F0C007C006C0051202BFE582D005D0063C
:20040700D00760030204B090E678E04440F0C007C006C00512032D90E678E04480F0120378
:200427001590E67974A3F01202BFE582D005D006D007707590E679E08E828F83F0C007C0A1
:2004470006C0051202ECE582D005D006D0077059FCC3EC9526502A90E679E08E828F83F057
:20046700A3AE82AF83C007C006C005C0041202ECE582D004D005D006D007702D0C8C0580E3
:20048700D090E678E04420F090E679E0C0051202ECE582D005701290E678E04440F090E659
:2004A70079E0C00512032DD0058D8222AE82AF837D00E5297003F5822275226475230075CE
:2004C70082A2C007C006C005120345E582D005D006D0076003020575AC2890E679ECF0C01E
:2004E70007C006C0051202BFE582D005D006D007600302057590E679E527F0C007C006C090
:20050700051202BFE582D005D006D0077060FCC3EC9529504B8E828F83E090E679F08E824E
:200527008F83E0FBA3AE82AF83903A04E0FAEB2AF0903A02E0FAA3E0FB903A0274012AF096
:20054700E43BA3F0C007C006C005C0041202BFE582D004D005D006D00770130C8C0580AFED
:2005670090E678E04440F0C00512032DD0058D8222903A0EE0FF903A00E0F524A3E0F5250E
:200587008F2690E740C0071203A9AE82D0077D00903A00E0FBA3E0FC903A00EF2BF0ED3CBE
:2005A700A3F08E8222AF82903A00E0F527A3E0F5288F2990E740C0071204B3D0077E0090F4
:2005C7003A00E0FCA3E0FD903A00EF2CF0EE3DA3F022AF8290E6017480F00000000090E6C7
:2005E70070E4F090E671F075B2FA74804FF58090000AC007120268D007AEB474F75EF5B478
:2006070074024FF5807E007F002080208E028F037C007D00C3EA94FFEB94FFEC9400ED6432
:2006270080948050070EBE00E00F80DD3080047FC880027F64903A0AEFF0903A06E4F0E415
:20064700A3F0E4A3F0E4A3F0903A05E4F0227582200205D97582600205D902065575B43F5A
:2006670043B201C28090E60174E3F00000000090E60BE4F0000000000000000090E69974A5
:2006870080F00000000090E6997480F090E6047480F00000000090E61AE4F000000000909E
:2006A700E6047406F00000000090E61A740DF00000000090E604E4F00000000022308004BA
:2006C7007F1480027F0A903A0AE0FEEF2EF07F00D283C2830FBF400040F6D287D283C28366
:2006E700D283C283D283C283D283C28353B2053080047F0280027F01903A0AE0FEEF2EF025
:20070700308105D281120664D28143B2022285B52A75B5FF903A0EE0FE903A06E0FAA3E071
:20072700FBA3E0FCA3E0FD8E0079007E007F00903A06E82AF0E93BA3F0EE3CA3F0EF3DA39F
:20074700F090E68BE06022FA759B40759AE775AF07903A05E0F990E67BE0F5B0D28329F93F
:1A076700C283DAF5903A05E9F0852AB590E68BE0FFBF400050030206C42238
:20006C0028015A5445580A0C00000001030000000000000000000000000000000000303086
:08008C003030303030303030EC
:200781002290E683E4F090E6837420F07410F07430F07401F090E6837421F07411F07431E7
:2007A100F07412F090E6837432F07404F07424F07416F090E6837436F022AF82E50924E001
:2007C100500375091F90E6BFE0701090E6BEE0FEC39509500690E6BEE0F50975AF078F9B63
:2007E10085089A7E407FE7EE04F59E7E407FE70EBE00010F8F9D90E67C7403F090E67BE0D2
:20080100FF7E00BF00028015C3EE9509500F90E67CEFF0E4F090E67BE0FF0E80E60EEE2E43
:20082100FE90E740F090E7417403F090E68AE4F090E68BEEF022903A0CE0FEA3E0FFC374B1
:20084100409EE49F50067C407D0080048E048F05903A0EECF07D00903A0CEEC39CF0EF9D2D
:20086100A3F022903A0FE0FFBF3102802CBF320122BF3928903A04E4F0903A02F0E4A3F063
:2008810090E6BBE0FE7F0090E6BAE0FD7C00903A00ED4FF0EC4EA3F02202066190E6A0E0FC
:2008A1004401F022C021C0E0C0F0C082C083C007C006C005C004C003C002C001C000C0D07E
:2008C10075D00090E6B9E0FF903A0FF090E6B57401F090E6B9E0FF24F35003020C72EFF58F
:2008E100F0240B83F582E5F0241183F583E4730ABE723B7272D30406171C2D3209090C0A92
:200901000C0C0A0C0C0C0C0C0C90E6B8E0FFBF8002800DBF8102801EBF8202802F020C723F
:2009210090E740E4F090E741F090E68AF090E68B7402F0020C7290E740E4F090E741F090E9
:20094100E68AF090E68B7402F0020C7290E6BCE0FF600FBF01028019BF80028005BF812F3F
:20096100801E90E6A0E0FF53070190E740EFF0803A90E6A1E0FF53070190E740EFF0802BA6
:2009810090E6A2E0FF53070190E740EFF0801C90E6BCE0C31314540324A3F582E434E6F54E
:2009A10083E0FF53070190E740EFF090E741E4F090E68AF090E68B7402F0020C7290E6B852
:2009C100E0FFBF02028003020C7290E6BAE06003020C7290E6BCE0FF600FBF01028015BFE8
:2009E10080028005BF8123801690E6A0E0FF54FEF0020C7290E6A1E0FF54FEF0020C7290F7
:200A0100E6A2E0FF54FEF0020C7290E6BCE0C31314540324A3FEE434E6FF90E6BCE0C313AF
:200A210014540324A3F582E434E6F583E0FD5305FE8E828F83EDF0020C7290E6B8E0FFBF18
:200A410002028003020C7290E6BAE06003020C7290E6BCE0FF600FBF01028014BF80028004
:200A610005BF8120801490E6A0E0FF4401F0804190E6A1E0FF4401F0803790E6A2E0FF4474
:200A810001F0802D90E6BCE0C31314540324A3FEE434E6FF90E6BCE0C31314540324A3F593
:200AA10082E434E6F583E0FD4305FE8E828F83EDF090E6BCE05480C423541FFF90E6BCE0CA
:200AC100FE740F5E420790E683EFF074204FF0020C7290E6BBE0FFBF01028019BF02028014
:200AE10028BF03028053BF0603020BB7BF0703020BCB020BFA7EF47F178F0690E6B3EEF05E
:200B010090E6B474F4F0020C7290E680E0FF30E7147E107F188F0690E6B3EEF090E6B47473
:200B210010F0020C727E467F188F0690E6B3EEF090E6B47446F0020C7290E6BAE0FFBF011A
:200B410002800FBF0202801EBF0302802DBF0452803C7582C67EC67F178F068E087509051B
:200B61001207BB020C727582CB7ECB7F178F068E087509211207BB020C7275828A7E8A7F59
:200B8100008F068E0875090A1207BB020C727582EC7EEC7F178F068E087509081207BB02E3
:200BA1000C727E7C7F188F0690E6B3EEF090E6B4747CF0020C727E067F188F0690E6B3EE38
:200BC100F090E6B47406F0020C7290E680E0FF30E7147E467F188F0690E6B3EEF090E6B4EF
:200BE1007446F0020C727E107F188F0690E6B3EEF090E6B47410F0807890E6A0E0FF440139
:200C0100F0806E806C90E740E4F090E68AF090E68B7401F0805B120782805690E740E4F051
:200C210090E68AF090E68B7401F08045120782804090E6B8E0FFBF823890E6BCE0C31314BB
:200C4100540375F002A42411F582743A35F0F583E4F0E4A3F090E685E090E740F090E68473
:200C6100E0FF90E741F090E68AE4F090E68B7402F090E6B8E0FFBF4003020D9DBFC00280F5
:200C810003020DCB90E6BFE0FE7F0090E6BEE0FD7C00903A0CED4FF0EC4EA3F012083790A7
:200CA100E6B9E0FFBF22028013BF3003020D42BF38028025BF3A028049020D9390E6B5E4E9
:200CC100F090E68AF090E68B7428F090E6B3E4F090E6B4746CF0020DCB90E6BBE0FE7F0047
:200CE10090E6BAE0FD7C00903A00ED4FF0EC4EA3F090E68AE4F0120578E58290E68BF002EA
:200D01000DCB903A02E0FEA3E090E740EEF0903A02E0A3E090E741F0903A04E090E742F00A
:200D21007522007523017582A2120345AF8290E743EFF090E68AE4F090E68B7404F0020D79
:200D4100CB759B057E057F3A8F068E9A759E417E417FE78F068E9DC0027A071202B0D002A7
:200D6100AFB274FD5FF5B230810C90E740E4F0D28143B202800990E7407401F01206559066
:200D8100E7487401F090E68AE4F090E68B7409F0803890E6A0E0FF4401F0802E90E6BFE0D7
:200DA100700690E6BEE0601A903A107401F090E68BE4F0AF9174EF5FF59190E65D7401F05A
:200DC100801D12086490E68BE4F0AF9174EF5FF59190E65D7401F090E6A0E0FF4480F0D0E9
:200DE100D0D000D001D002D003D004D005D006D007D083D082D0F0D0E0D02132C0E0C0826C
:200E0100C083C007C0D075D000AF9174EF5FF59190E65D7402F0D0D0D007D083D082D0E065
:200E210032C0E0C082C083C007C0D075D000AF9174EF5FF59190E65D7404F0D0D0D007D0B4
:200E410083D082D0E032C0E0C082C083C007C0D075D000AF9174EF5FF59190E65D7408F052
:200E6100D0D0D007D083D082D0E032C0E0C082C083C007C0D075D000AF9174EF5FF591909A
:200E8100E65D7410F0D0D0D007D083D082D0E032C0E0C082C083C007C0D075D000AF917427
:200EA100EF5FF59190E65D7420F0D0D0D007D083D082D0E032C0E0C082C083C007C0D07517
:200EC100D000AF9174EF5FF59190E65D7440F0D0D0D007D083D082D0E032C021C0E0C0F013
:200EE100C082C083C007C006C005C004C003C002C001C000C0D075D000C2E8120837903AB6
:200F01000FE0FFBF30028023BF38028005BF3A12801990E68AE4F0120578E58290E68BF071
:200F2100800990E68AE4F090E68BF0AF9174EF5FF59190E65F7401F0D2E8D0D0D000D001A5
:200F4100D002D003D004D005D006D007D083D082D0F0D0E0D02132C021C0E0C0F0C082C02A
:200F610083C007C006C005C004C003C002C001C000C0D075D000C2E8903A10E0FF60209089
:200F81003A10E4F090E6BFE0FE7F0090E6BEE0FD7C00903A0CED4FF0EC4EA3F012086412B4
:200FA1000837903A0FE0FFBF31028016BF3202800EBF390E90E68BE0F5821205AC8003127A
:200FC100071590E68BE4F0AF9174EF5FF59190E65F7402F0903A0CE0FEA3E0FF4E700890D0
:200FE100E6A0E0FF4480F0D2E8D0D0D000D001D002D003D004D005D006D007D083D082D06C
:20100100F0D0E0D02132C0E0C082C083C007C0D075D000AF9174EF5FF59190E65F7404F086
:20102100D0D0D007D083D082D0E032C0E0C082C083C007C0D075D000AF9174EF5FF59190D8
:20104100E65F7408F0D0D0D007D083D082D0E032C0E0C082C083C007C0D075D000AF91746B
:20106100EF5FF59190E65F7410F0D0D0D007D083D082D0E032C0E0C082C083C007C0D07563
:20108100D000AF9174EF5FF59190E65F7420F0D0D0D007D083D082D0E032C0E0C082C0837B
:2010A100C007C0D075D000AF9174EF5FF59190E65F7440F0D0D0D007D083D082D0E032C0D4
:2010C100E0C082C083C007C0D075D000AF9174EF5FF59190E65F7480F0D0D0D007D083D033
:2010E10082D0E03290E680E04408F090E6007412F0900002120268AF8E74F85FF58ED281A1
:2011010043B202C2AFC2E89000437402F09000447401F090004574B8F090E668E04408F05F
:201121009001007402F07EA57F088F05900101EDF0900102EEF09001047402F07EFD7F0D97
:201141008F05900105EDF0900106EEF09001087402F07E227F0E8F05900109EDF090010A40
:20116100EEF090010C7402F07E477F0E8F0590010DEDF090010EEEF09001107402F07E6CBE
:201181007F0E8F05900111EDF0900112EEF09001147402F07E917F0E8F05900115EDF090DF
:2011A1000116EEF09001187402F07EB67F0E8F05900119EDF090011AEEF09001207402F0AE
:2011C1007EDB7F0E8F05900121EDF0900122EEF09001247402F07E587F0F8F05900125EDBE
:2011E100F0900126EEF09001287402F07E077F108F05900129EDF090012AEEF090012C7441
:2012010002F07E2C7F108F0590012DEDF090012EEEF09001307402F07E517F108F0590012C
:2012210031EDF0900132EEF09001347402F07E767F108F05900135EDF0900136EEF09001E3
:20124100387402F07E9B7F108F05900139EDF090013AEEF090013C7402F07EC07F108F05CF
:2012610090013DEDF090013EEEF0AF9174EF5FF59190E65D747FF090E65CE0FF447FF090E3
:20128100E65F74FFF090E65E74FFF0D2E8D2AF90E61174A0F00000000090E61074A0F0001E
:2012A10000000090E61274E2F00000000090E61374A2F00000000090E61474EAF0000000F8
:2012C1000090E615E4F00000000090E680E04482F090000A12026890E680E054F7F0229049
:2012E100E6A3E0FF54FEF00000000090E6A4E0FF54FEF00000000090E6957480F000000019
:201301000090E6957480F090E6047480F00000000090E6047402F00000000090E604E4F051
:20132100000000002290E6A3E05408FFB40100E433FF60047F0180027F007E008F828E83E6
:201341002285820A85830B85F00C7B007C00C3EB9508EC9509502DEC54FE600280268B01AA
:2013610074F02CFAEB250AF8EC350BFEAF0C88828E838FF01217A6F889828A83F00BBB00BC
:20138100CD0C80CA90E690E509F000000000AE0890E691EEF08B828C832285822B750801BC
:2013A10075090090002B75F04002134290E6A4E05404FFB40100E433FF60047F0180027FF6
:2013C100007E008F828E832290E694E0FE7F0090E695E07C004FF582EC4EF5832285820AD1
:2013E10085830B85F00C90E694E0FB7C0090E695E0F97A00E94CF50DEA4BF50E79007A0037
:20140100C3E9950DEA950E5033C3E99508EA9509502AEA54FE60028023E9250AF8EA350BA7
:20142100FBAC0C898274F42AF583E0FF88828B838CF012178B09B900C70A80C400000000E5
:2014410090E6957480F089828A8322752C0075080175090090002C75F0401213DE852C822E
:201461002275B407000000000000000022AF827E00EF33920092A1EF2FFFC2A000000000E2
:20148100D2A000000000C2A0000000000EBE080040DF227F007E00C2A200000000D2A2008D
:2014A100000000C2A200000000EF2FFDA2A3E433FC4DFF0EBE080040DE8F8222E5822582D5
:2014C100FF74014FF58212146E852D8202146EE58225E0F58212146E02149490E6047480F6
:2014E100F00000000090E61AE4F00000000090E6047486F00000000090E604E4F0000000E5
:201501000090E61474EAF00000000090E61A740DF00000000090E6047406F000000000907D
:20152100E604E4F00000000090E618E0FF54FEF00000000090E619E0FF54FEF0000000008D
:2015410090E61BE0FF54FEF00000000090E6247404F00000000090E625E4F00000000090D7
:20156100E60974FFF0000000000000000090E63474C1F00000000090E63574FFF00000003B
:2015810000752E01752F0022AD82AE83AFF0E5304531700302173AC3E5329402E533940074
:2015A100500302173A8D828E838FF01217A6FCBC0102800FBC020302163FBC03030216B723
:2015C10002170D7402B53006E4B53102800280548D828E838FF0E412178B74012DF9E43E6D
:2015E100FA8F0389828A838BF01217A6F582C007C006C005C003C002C0011214D0A882D0FD
:2016010001D002D003D005D006D00789828A838BF0E812178B7508027509008D828E838FC6
:20162100F00213428D828E838FF074E112178B7508017509008D828E838FF0021342740351
:20164100B53006E4B531028002805174012DF9E43EFA8F0389828A838BF01217A6F9740265
:201661002DF8E43EFA8F0388828A838BF01217A6F52D8982C007C006C0051214BDD005D02E
:2016810006D0078D828E838FF0E412178B7508017509008D828E838FF00213428D828E8323
:2016A1008FF074E112178B7508017509008D828E838FF00213427401B53006E4B531028003
:2016C10002802FD28090000AC007C006C00512028CD005D006D007C2808D828E838FF0E433
:2016E10012178B7508017509008D828E838FF00213428D828E838FF074E112178B7508011D
:201701007509008D828E838FF002134274012DF9E43EFA8F0389828A838BF0EC12178B8D4B
:20172100828E838FF074E212178B7508027509008D828E838FF00213427534E1750801751C
:20174100090090003475F0400213421210E51212E01214DC1213ADE5828583F045F060F4F8
:2017610075080875090090003575F0401213DE8582308583310000000075320875330090A1
:0A178100003575F04012158980CA8A
:2017C6005A544558004661756C74496E6A656374696F6E46504741000000000000000000FB
:2017E60000000000000064656661756C740012010002FFFFFF401A22000100000102030168
:201806000A060002FFFFFF40010009023500010104C0320904000005FFFFFF00070581029C
:20182600000200070501020002000705820200020007050402000200070586020004000051
:2018460009023500010104C0320904000005FFFFFF0007058102400000070501024000001D
:201866000705820240000007050402400000070586024000000004030409000000FF000059
:07188600000000000000005B
:06023500E478FFF6D8FD9D
:20021300790DE94400601B7A01901880780C75923AE493F2A308B800020592D9F4DAF275C2
:0202330092FF38
:1B178B0020F71130F6138883A88220F509F6A8837583002280FEF280F5F0225D
:20023B007800E84400600A790075923AE4F309D8FC780CE84400600C7901903A00E4F0A350
:04025B00D8FCD9FAF8
:0D02060075813C1217C2E5826003020203FD
:1C17A60020F71430F6148883A88220F507E6A88375830022E280F7E49322E02252
:0417C200758200220A
:00000001FF
