:100000000C9424000C9441000C9441000C94410089
:100010000C9441000C9441000C9441000C9441005C
:100020000C9441000C9441000C9441000C9441004C
:100030000C9441000C9441000C9441000C9441003C
:100040000C9441000C94410011241FBECFE5D4E074
:10005000DEBFCDBF10E0A0E6B0E0E6E6FAE002C009
:1000600005900D92A437B107D9F713E0A4E7B0E0EB
:1000700001C01D92AD32B107E1F70E9459000C9406
:1000800031050C9400008FE293E08156944070F4A7
:1000900020E030E0E0E6F4E09291829128273927D1
:1000A00083E0EF32F807C0F7C901089520E030E09F
:1000B000FBCFBF92CF92DF92EF92FF920F931F93ED
:1000C000DF93CF93CDB7DEB7CC56D0400FB6F894C0
:1000D000DEBF0FBECDBF0E94920237E2E32EF12CAD
:1000E000EC0EFD1E8E010F5F1F4F22E0D22E97E611
:1000F000B92E84E6C82E18C08FA1898388A58A836B
:10010000DB821E82BC821D82C8010E94FC01198212
:100110001A82DB821E82CC821D821FA218A619A61B
:100120001FA61EA61AA61BA6C7010E94B3028130F5
:1001300019F7C701B8010E94A901E6CF0F931F93D9
:10014000CF93DF93FC01EB018781833059F082E08C
:100150008A831D8284E68B831C82DF91CF911F915D
:100160000F910895118502858385882341F030E041
:1001700098E0292F2A95F1F73F5F3817D0F3812FA8
:1001800090E00E941C058E83812F90E0602F0E94DA
:100190002405812F90E00E941C058F8384E08A83D0
:1001A00082E08D8380E98B831C82DF91CF911F9148
:1001B0000F910895CF93DF93FC01EB01878180318C
:1001C00049F082E08A831D8284E68B831C82DF9162
:1001D000CF910895DF01E4E7F0E019968C9119972B
:1001E0008193119680E0E438F807B9F7CF01409782
:1001F00064E870E04CE251E00E94610482E08A838E
:100200001D8280E98B831C82DF91CF910895CF926C
:10021000DF92EF92FF920F931F93CF93DF936C01C6
:100220007B01DC0117968C91803181F082E0FB012B
:100230008283158284E683831482DF91CF911F919C
:100240000F91FF90EF90DF90CF900895F60104E7B3
:1002500010E0E80181858993319680E0C438D807A1
:10026000C9F7CE01409764E870E04CE251E00E948B
:100270002204F701D8018D918D0186833196CA172A
:10028000DB07C1F7F6018085813180F48E5FD701ED
:1002900012968C931297825015968C93159780E93D
:1002A00013968C93139714961C92C7CF80E1EECFD0
:1002B000CF92DF92EF92FF920F931F93CF93DF9332
:1002C0006C017B01DC0117968C91803181F082E01A
:1002D000FB018283158284E683831482DF91CF91B0
:1002E0001F910F91FF90EF90DF90CF900895F6014E
:1002F00004E710E0E80181858993319680E0C438F5
:10030000D807C9F7CE01409764E870E04CE251E0AD
:100310000E94E703F701D8018D918D018683319604
:10032000CA17DB07C1F7F6018085813180F48E5F43
:10033000D70112968C931297825015968C9315972D
:1003400080E913968C93139714961C92C7CF80E183
:10035000EECFFC01DB0180818C93818111968C931F
:1003600011978181813CF1F08381803871F082E0C6
:1003700012968C93129715961C9215978EE61396EB
:100380008C93139714961C9208958481843061F1A4
:100390008530B0F0803421F18234A1F4CF010E9485
:1003A0000701089580818C9381EE11968C931197AB
:1003B00081E012968C931297838116968C93089500
:1003C0008230B1F082E012968C93129715961C92AF
:1003D000159788E613968C93139714961C9208959C
:1003E000CF010E9458010895CF010E949E000895F8
:1003F000CF010E94DA000895CF92DF92EF92FF9230
:100400001F93DF93CF93CDB7DEB7C654D0400FB65E
:10041000F894DEBF0FBECDBF7C01DC0111963C918C
:10042000119737FD5AC0FC01908199833A838281EC
:100430008B83592F532758274581442309F46BC0D8
:100440006E2DDE011496F70186818D935827319623
:100450008E2F861B8417C0F3842F90E0BC016D5F44
:100460007F4FDC0114969C012B5F3F4FF701938176
:100470006E010894C11CD11C6C0D7D1DFB01908385
:10048000F7018481AC0DBD1D8C9389272C0D3D1D7A
:100490008527D9018C9310E0E0E0F0E0EC0DFD1D24
:1004A00080810E94DF041F5FE12FF0E0D7011296E8
:1004B0008C9190E003968E179F0784F7CA5BDF4FFD
:1004C0000FB6F894DEBF0FBECDBFCF91DF911F9165
:1004D000FF90EF90DF90CF9008958C9189833A83BD
:1004E00012962C9112972B8316969C919C83182F11
:1004F0001327122719271D830E94DF048A810E9477
:10050000DF048B810E94DF048C810E94DF04812F35
:100510000E94DF04D3CF63E070E0A4E0B0E025E008
:1005200030E0A4CFFF920F931F93CF93DF9301E6A8
:1005300010E0FF24F80181918F01F826F0E00437E4
:100540001F07C1F7E801649789910E94DF040C1727
:100550001D07D1F78F2D0E94DF04DF91CF911F91EE
:100560000F91FF9008957F928F929F92AF92BF92CA
:10057000CF92DF92EF92FF920F931F93DF93CF936F
:10058000CDB7DEB7C654D0400FB6F894DEBF0FBE6D
:10059000CDBF5C010E949A04782E0E949A04882E96
:1005A0000E949A04982EE82EFF24E114F10409F425
:1005B00071C000E010E06E010894C11CD11C0E94C3
:1005C0009A04F601E00FF11F80830F5F1F4F0E1595
:1005D0001F05ACF30E949A04182FF50170828182E6
:1005E0009282682D67256925F60196012E0D3F1D23
:1005F00081916827E217F307D9F78981F501838391
:100600008A8184838B8185838C8186837281753016
:10061000C1F17630E0F08D81F5018783882309F4FC
:1006200044C0DE011696F50120E030E0482F50E08E
:100630008D9181872F5F3F4FCA013196241735076F
:10064000BCF3E72FF0E005968E179F07ECF06117DB
:10065000B1F08FEFCA5BDF4F0FB6F894DEBF0FBE6D
:10066000CDBFCF91DF911F910F91FF90EF90DF9061
:10067000CF90BF90AF909F908F907F90089581E032
:10068000E9CF8D818087E3CFEC0FFD1F8081F501DD
:100690008087DDCF0E949A04182FF5017082818235
:1006A0009282682D67256925A8CF80E090E0C9CFA8
:1006B000EEEBF6E0E10F1127F11F14910895637C32
:1006C000777BF26B6FC53001672BFED7AB76CA82A2
:1006D000C97DFA5947F0ADD4A2AF9CA472C0B7FD52
:1006E0009326363FF7CC34A5E5F171D8311504C710
:1006F00023C31896059A071280E2EB27B275098387
:100700002C1A1B6E5AA0523BD6B329E32F8453D127
:1007100000ED20FCB15B6ACBBE394A4C58CFD0EF1C
:10072000AAFB434D338545F9027F503C9FA851A356
:10073000408F929D38F5BCB6DA2110FFF3D2CD0C74
:1007400013EC5F974417C4A77E3D645D1973608105
:100750004FDC222A908846EEB814DE5E0BDBE032D6
:100760003A0A4906245CC2D3AC629195E479E7C8A1
:10077000376D8DD54EA96C56F4EA657AAE08BA7815
:10078000252E1CA6B4C6E8DD741F4BBD8B8A703EB7
:10079000B5664803F60E613557B986C11D9EE1F86E
:1007A000981169D98E949B1E87E9CE5528DF8CA1BC
:1007B000890DBFE6426841992D0FB054BB1600E188
:1007C0001C910E9458031D930A95D1F708952F920A
:1007D0003F924F925F926F927F928F929F92AF92D1
:1007E000BF92CF92DF92EF92FF920F931F93CF931E
:1007F000DF93EF93FF93BD9ABF9AC59AC79AA82F2C
:10080000B92FC62FD72F00E11C91299112271D93D4
:100810000A95D1F7C598C798FF91EF91DF91CF91D5
:100820001F910F91FF90EF90DF90CF90BF90AF900E
:100830009F908F907F906F905F904F903F902F9000
:10084000112408952F923F924F925F926F927F9260
:100850008F929F92AF92BF92CF92DF92EF92FF92D0
:100860000F931F93CF93DF93EF93FF93BD9ABF9A9C
:10087000C59AC79AA82FB92FC62FD72F00E11C9170
:10088000299112271D930A95D1F7A82FB92F0E94FD
:10089000DF03C598C798FF91EF91DF91CF911F912A
:1008A0000F91FF90EF90DF90CF90BF90AF909F900F
:1008B0008F907F906F905F904F903F902F9011247A
:1008C00008952F923F924F925F926F927F928F92F4
:1008D0009F92AF92BF92CF92DF92EF92FF920F93CF
:1008E0001F93CF93DF93EF93FF93A82FB92FC62FBA
:1008F000D72F00E11D9119930A95E1F7FF91EF9130
:10090000DF91CF911F910F91FF90EF90DF90CF90EB
:10091000BF90AF909F908F907F906F905F904F901F
:100920003F902F901124089565E16A95F1F708959D
:1009300069E7FBCF7F936F935F934F9361E0609381
:100940002C03BE98C698B699FECFB699FCCF8827DF
:1009500099276FE1EADF22D0000059E0442762E4E2
:1009600000000000E2DF1AD0470F889470FD089461
:10097000879561E45A95B1F7881F40FD08C06CE483
:10098000D4DF99274F915F916F917F9108956CE427
:10099000CCDFBE9AC69866EBC8DFD3CF77278894A2
:1009A000B6990894791FC0DF8894B6990894791F86
:1009B000BBDF8894B6990894791F769508956F9354
:1009C0007F9360912C03662329F0B2DFB1DF60E0F2
:1009D00060932C03C69ABE9AC69867E7A6DF98E094
:1009E0007727879510F0C69802C0C69A739566E778
:1009F0009CDF00009A95A9F770FD04C0000000007C
:100A0000C69804C00000C69A0000000060E78DDFB1
:100A1000C69A67E78ADFBE98C6988894B699089404
:100A200030F08795B699FECF6AE37FDFD3CF64E7D6
:100A30007CDF7F916F910895E199FECF9FBB8EBBC4
:100A4000E09A99278DB30895262FE199FECF9FBB99
:100A50008EBB2DBB0FB6F894E29AE19A0FBE0196B9
:060A60000895F894FFCF99
:100A66003BBB110091813146152A536D3472744394
:040A76003472642A48
:00000001FF
